:100000000C94C5000C94E2000C94E2000C94E20005
:100010000C94E2000C94E2000C94E2000C94E200D8
:100020000C94E2000C94E2000C94E2000C94E200C8
:100030000C94E2000C94E2000C94E2000C94E200B8
:100040000C94E2000C94E2000C94E2000C94E200A8
:100050000C94E2004E414E494E495459494E46CD0A
:10006000CCCC3D0AD7233C17B7D13877CC2B32956F
:1000700095E6241FB14F0A000020410000C842004D
:10008000401C4620BCBE4CCA1B0E5AAEC59D740017
:10009000407A10F35A00A0724E18090010A5D4E857
:1000A0000000E87648170000E40B54020000CA9AEA
:1000B0003B000000E1F5050000809698000000403C
:1000C000420F000000A08601000000102700000081
:1000D00000E803000000006400000000000A0000C7
:1000E0000000000100000000002C76D888DC674F7B
:1000F0000823DFC1DFAE59E1B1B796E5E3E453C6AB
:100100003AE651997696E8E6C28426EB898C9B62A2
:10011000ED407C6FFCEFBC9C9F40F2BAA56FA5F44C
:1001200090055A2AF75C936B6CF9676DC11BFCE074
:10013000E40D47FEF520E6B500D0ED902E030094C7
:100140003577050080841E080000204E0A0000005C
:10015000C80C333333330F986E12831141EF8D2166
:1001600014893BE65516CFFEE6DB18D1844B381BCD
:10017000F77C1D901DA4BBE424203284725E228192
:1001800000C9F124ECA1E53D270011241FBECFE5F5
:10019000D8E0DEBFCDBF10E0A0E6B0E0E4E0F7E1DC
:1001A00002C005900D92A038B107D9F720E0A0E871
:1001B000B0E001C01D92A438B207E1F70E949F038E
:1001C0000C94800B0C940000CF93DF93CDB7DEB777
:1001D000A0970FB6F894DEBF0FBECDBFBC01209133
:1001E000800030918100FC01E20FF31F80818B328F
:1001F00011F08D3251F489832F5F3F4F309381008E
:100200002093800021E030E002C020E030E0E09167
:100210008000F0918100E60FF71F80818F3211F08E
:100220008A32E1F40E946C0380E690E00E9434037D
:1002300060E070E0CB012BC02F3131054CF4E1E0E0
:10024000F0E0EC0FFD1FE20FF31F90832F5F3F4F95
:100250004F5F5F4F5093810040938000409180003A
:1002600050918100FB01E40FF51F908180ED890F13
:100270008A3010F39E3201F3E1E0F0E0EC0FFD1F55
:10028000E20FF31F1082CE0101960E948707A0960D
:100290000FB6F894DEBF0FBECDBFDF91CF910895AA
:1002A0008F929F92AF92BF92DF92EF92FF920F9345
:1002B0001F93CF93DF937C010E94E4008B01D82F22
:1002C000C92F8091800090918100F701E80FF91FFC
:1002D000D0802AE2D21619F02FE2D21231C0019654
:1002E0009093810080938000C7010E94E4004B013D
:1002F0005C018AE2D81208C0A5019401B8018D2FD3
:100300009C2F0E94FA06DACF20E030E0A901C50157
:10031000B4010E94D10581110BC00E946C0384E6D8
:1003200090E00E94340300E010E0D0E0C0E008C09C
:10033000A5019401B8018D2F9C2F0E94D605BECF38
:10034000B8018D2F9C2FDF91CF911F910F91FF90BE
:10035000EF90DF90BF90AF909F908F900895CF92D5
:10036000DF92EF92FF921F93CF93DF93EC010E94F5
:1003700050016B017C018091800090918100FE0111
:10038000E80FF91F10811B3211F01D32A1F4019604
:100390009093810080938000CE010E9450019B01C8
:1003A000AC01C701B6011B3219F40E946505E1CF0B
:1003B0000E946405DECFC701B601DF91CF911F9186
:1003C000FF90EF90DF90CF900895109281001092EF
:1003D00080000C94AF01CF93C0E040E06C2F83E02D
:1003E0000E94E10342E06C2F82E00E94E103CF5FB4
:1003F000C43099F7CF910895DF92EF92FF920F9357
:100400001F93CF93DF93C0E041E06C2F83E00E9405
:10041000A104CF5FC430C1F78FE6E82E80E0F82E4C
:1004200000E010E040E0612F83E00E94A104C0E002
:10043000D0E0DC2E6C2F82E00E94060581110AC0FC
:10044000F701EC0FFD1F00816D2D82E00E94060573
:100450008823D1F32196C430D10559F741E0612FAB
:1004600083E00E94A1041F5F84E0E80EF11C1430B9
:10047000C9F6802FDF91CF911F910F91FF90EF90E0
:10048000DF900895CF93C82F40E061E081E00E94A3
:10049000A1044C2F441F4427441F67E083E00E94BF
:1004A000A104C6FB442740F966E083E00E94A10452
:1004B000C5FB442740F965E083E00E94A104C4FB2A
:1004C000442740F964E083E00E94A1048FEC97E0A8
:1004D0000197F1F700C0000041E060E081E00E9478
:1004E000A1048FEC97E00197F1F700C0000040E015
:1004F00060E081E00E94A1048FEC97E00197F1F7A2
:1005000000C00000C3FB442740F967E083E00E947D
:10051000A104C2FB442740F966E083E00E94A104E5
:10052000C1FB442740F965E083E00E94A1044C2F01
:10053000417064E083E00E94A1048FEC97E0019792
:10054000F1F700C0000041E060E081E00E94A104FA
:100550008FEC97E00197F1F700C0000040E060E009
:1005600081E00E94A1048FEC97E00197F1F700C0B1
:100570000000CF910895CF93C82F41E061E081E062
:100580000E94A1044C2F441F4427441F67E083E0CE
:100590000E94A104C6FB442740F966E083E00E9464
:1005A000A104C5FB442740F965E083E00E94A10453
:1005B000C4FB442740F964E083E00E94A1048FEC6F
:1005C00097E00197F1F700C0000041E060E081E0B2
:1005D0000E94A1048FEC97E00197F1F700C00000A2
:1005E00040E060E081E00E94A1048FEC97E0019779
:1005F000F1F700C00000C3FB442740F967E083E047
:100600000E94A104C2FB442740F966E083E00E94F7
:10061000A104C1FB442740F965E083E00E94A104E6
:100620004C2F417064E083E00E94A1048FEC97E0BE
:100630000197F1F700C0000041E060E081E00E9416
:10064000A1048FEC97E00197F1F700C0000040E0B3
:1006500060E081E00E94A1048FEC97E00197F1F740
:1006600000C00000CF910895CF93DF93EC018991F2
:10067000882319F00E94BB02FACFDF91CF91089531
:100680000F931F93CF93DF93CDB7DEB761970FB66C
:10069000F894DEBF0FBECDBF8E010F5F1F4F22E06B
:1006A00046E00E946707C8010E94340361960FB6B6
:1006B000F894DEBF0FBECDBFDF91CF911F910F9198
:1006C0000895811102C080E803C0813021F480ECDC
:1006D000860F0C944202089581E00E9442028FEC42
:1006E00097E00197F1F700C00000089560E083E013
:1006F0000E941E0560E081E00E941E052FE788E34E
:1007000091E0215080409040E1F700C0000082E07D
:100710000E94420288E20E9442028CE00E94420251
:100720000E946C0386E00C9442028FE00E94420219
:100730008FEC97E00197F1F700C000000895CF9388
:10074000DF93CDB7DEB7C054D1090FB6F894DEBF42
:100750000FBECDBF0E9476030E94EB01CE01019631
:100760007C0180E4F70111928A95E9F70E94FC016F
:100770008336E1F70E94950310E00E94FC01833666
:1007800019F40E946C030FC08D3379F4F701E10F67
:10079000F11D108260E081E00E946103C7010E94A8
:1007A000E5010E9440031982E7CF882331F31F330C
:1007B00020F7F701E10FF11D80831F5F0E94BB024C
:1007C000DCCF413009F445C020F0423009F475C057
:1007D00008958130A1F028F08230F9F0833059F18A
:1007E00008952AB381E090E001C0880F6A95EAF786
:1007F000922F982B9ABB9BB38095892373C027B304
:1008000081E090E001C0880F6A95EAF7922F982B5B
:1008100097BB98B38095892374C024B381E090E09E
:1008200001C0880F6A95EAF7922F982B94BB95B375
:100830008095892375C021B381E090E001C0880FC5
:100840006A95EAF7922F982B91BB92B380958923F2
:1008500076C0813089F028F08230C9F0833011F100
:1008600008952AB381E090E001C0880F6A95EAF705
:10087000809582238ABB089527B381E090E001C070
:10088000880F6A95EAF78095822387BB089524B381
:1008900081E090E001C0880F6A95EAF78095822395
:1008A00084BB089521B381E090E001C0880F6A9570
:1008B000EAF78095822381BB08958130A9F028F062
:1008C000823009F1833071F108952AB381E090E01C
:1008D00001C0880F6A95EAF7982F909592239ABBEA
:1008E0009BB3892B8BBB089527B381E090E001C0B7
:1008F000880F6A95EAF7982F9095922397BB98B343
:10090000892B88BB089524B381E090E001C0880F53
:100910006A95EAF7982F9095922394BB95B3892B0B
:1009200085BB089521B381E090E001C0880F6A95EE
:10093000EAF7982F9095922391BB92B3892B82BBB3
:100940000895442379F1413009F05FC0813079F096
:1009500028F08230A9F08330E1F008952BB381E0D4
:1009600090E001C0880F6A95EAF7822B2CC028B36B
:1009700081E090E001C0880F6A95EAF7822B2EC0D3
:1009800025B381E090E001C0880F6A95EAF7822BD9
:1009900030C022B381E090E001C0880F6A95EAF789
:1009A000822B32C0813089F028F08230C9F0833048
:1009B00011F108952BB381E090E001C0880F6A9592
:1009C000EAF7809582238BBB089528B381E090E0FD
:1009D00001C0880F6A95EAF78095822388BB089545
:1009E00025B381E090E001C0880F6A95EAF7809511
:1009F000822385BB089522B381E090E001C0880F77
:100A00006A95EAF78095822382BB0895813049F088
:100A100030F0823041F0833079F480B305C089B37F
:100A200003C086B301C083B390E002C0959587955B
:100A30006A95E2F78170089580E008956130E1F0F1
:100A400018F0623049F10895813051F028F0823079
:100A500059F0833069F008958FEF8ABB1BBA08956F
:100A60008FEF87BB18BA08958FEF84BB15BA08952E
:100A70008FEF81BB12BA0895813041F028F08230A7
:100A800039F0833039F008951ABA089517BA0895E5
:100A900014BA089511BA0895813051F028F08230C7
:100AA00059F0833069F008951ABA8FEF8BBB08951F
:100AB00017BA8FEF88BB089514BA8FEF85BB0895DE
:100AC00011BA8FEF82BB08955058BB27AA270E9406
:100AD0007C050C94C0060E94B20638F00E94B9064C
:100AE00020F039F49F3F19F426F40C94AF060EF46D
:100AF000E095E7FB0C94A906E92F0E94D10658F374
:100B0000BA17620773078407950720F079F4A6F5F2
:100B10000C94F3060EF4E0950B2EBA2FA02D0B01CA
:100B2000B90190010C01CA01A0011124FF27591B32
:100B300099F0593F50F4503E68F11A16F040A22F38
:100B4000232F342F4427585FF3CF469537952795A9
:100B5000A795F0405395C9F77EF41F16BA0B620BA8
:100B6000730B840BBAF09150A1F0FF0FBB1F661FEF
:100B7000771F881FC2F70EC0BA0F621F731F841F32
:100B800048F4879577956795B795F7959E3F08F058
:100B9000B0CF9395880F08F09927EE0F979587951A
:100BA00008950E94850608F481E008950E94EA05F0
:100BB0000C94C0060E94B90658F00E94B20640F09C
:100BC00029F45F3F29F00C94A90651110C94F40606
:100BD0000C94AF060E94D10668F39923B1F3552314
:100BE00091F3951B550BBB27AA2762177307840740
:100BF00038F09F5F5F4F220F331F441FAA1FA9F3D6
:100C000035D00E2E3AF0E0E832D091505040E695C3
:100C1000001CCAF72BD0FE2F29D0660F771F881F24
:100C2000BB1F261737074807AB07B0E809F0BB0B17
:100C3000802DBF01FF2793585F4F3AF09E3F51052B
:100C400078F00C94A9060C94F4065F3FE4F3983E08
:100C5000D4F3869577956795B795F7959F5FC9F714
:100C6000880F911D9695879597F90895E1E0660F95
:100C7000771F881FBB1F621773078407BA0720F00E
:100C8000621B730B840BBA0BEE1F88F7E095089577
:100C9000E89409C097FB3EF4909580957095619516
:100CA0007F4F8F4F9F4F9923A9F0F92F96E9BB27CC
:100CB0009395F695879577956795B795F111F8CF48
:100CC000FAF4BB0F11F460FF1BC06F5F7F4F8F4FB3
:100CD0009F4F16C0882311F096E911C0772321F0A9
:100CE0009EE8872F762F05C0662371F096E8862F41
:100CF00070E060E02AF09A95660F771F881FDAF798
:100D0000880F9695879597F90895990F0008550FC4
:100D1000AA0BE0E8FEEF16161706E807F907C0F081
:100D200012161306E407F50798F0621B730B840B89
:100D3000950B39F40A2661F0232B242B252B21F463
:100D400008950A2609F4A140A6958FEF811D811D03
:100D5000089597F99F6780E870E060E008959FEF3D
:100D600080EC089500240A94161617061806090642
:100D7000089500240A941216130614060506089511
:100D8000092E0394000C11F4882352F0BB0F40F499
:100D9000BF2B11F460FF04C06F5F7F4F8F4F9F4FD9
:100DA000089557FD9058440F551F59F05F3F71F05B
:100DB0004795880F97FB991F61F09F3F79F08795C2
:100DC0000895121613061406551FF2CF4695F1DF4B
:100DD00008C0161617061806991FF1CF86957105DB
:100DE000610508940895E894BB2766277727CB010F
:100DF00097F908950E940D070C94C0060E94B20650
:100E000038F00E94B90620F0952311F00C94A90641
:100E10000C94AF0611240C94F4060E94D10670F3D2
:100E2000959FC1F3950F50E0551F629FF001729F8F
:100E3000BB27F00DB11D639FAA27F00DB11DAA1F9E
:100E4000649F6627B00DA11D661F829F2227B00DEB
:100E5000A11D621F739FB00DA11D621F839FA00D76
:100E6000611D221F749F3327A00D611D231F849FC6
:100E7000600D211D822F762F6A2F11249F5750401D
:100E80009AF0F1F088234AF0EE0FFF1FBB1F661F98
:100E9000771F881F91505040A9F79E3F510580F061
:100EA0000C94A9060C94F4065F3FE4F3983ED4F347
:100EB000869577956795B795F795E7959F5FC1F705
:100EC000FE2B880F911D9695879597F90895EF92BF
:100ED0000F931F93CF93DF93E80147FD02C034E0E7
:100EE00001C034E1042E000C550B57FF03C051958F
:100EF00041955109E32E022F242FAE010E948B074A
:100F0000CE01DF91CF911F910F91EF900895662749
:100F100077270C94E508A9E0B0E0E1E9F7E00C944C
:100F2000400B6A01122FB02E2BE3201720F0FF2474
:100F3000F394F00E02C02CE3F22E0F2D27E0AE0149
:100F40004F5F5F4F0E94330ABC014981842F897033
:100F5000813031F0E1FC06C0E0FE06C090E205C041
:100F60009DE203C09BE201C090E05E2D507143FF03
:100F70003CC0911102C083E001C084E0811718F4E5
:100F8000212F281B01C020E051110BC0F601822F38
:100F900030E2882319F031938150FBCFC20ED11C6F
:100FA00020E0992329F0D6019C93F60131966F0138
:100FB000C6010396E2FE0AC03EE4D6013C9341E43A
:100FC00011964C93119712963C9306C03EE6F6019B
:100FD000308341E641833283FC01322F40E23323E8
:100FE00009F442C041933150FACF42FF44C09111FD
:100FF00002C083E001C084E0811718F4212F281B70
:1010000001C020E051110BC0F601822F30E288238D
:1010100019F031938150FBCFC20ED11C20E09923EF
:1010200029F0D6019C93F60131966F01C601039613
:10103000E2FE0BC039E4D6013C933EE411963C93AA
:10104000119736E412963C9307C039E6F6013083D7
:101050003EE6318336E63283FC01322F40E2332311
:1010600019F041933150FBCFFC01E20FF11D1082CA
:101070008EEF9FEFA6C021E030E0911102C020E08A
:1010800030E0161617061CF4FB01319602C0E1E0B1
:10109000F0E02E0F3F1FBB2021F0EB2DF0E031964A
:1010A00002C0E0E0F0E02E0F3F1FE12FF0E02E172E
:1010B0003F071CF4121B212F01C020E08E2D8871E8
:1010C00059F4F601822F30E2882319F031938150D0
:1010D000FBCFC20ED11C20E0992329F0D6019C93AE
:1010E000F60131966F0151110BC0F601822F90E38A
:1010F000882319F091938150FBCFC20ED11C20E0C0
:101100000F2D060F9A81342F307144FF03C09133A5
:1011100009F40150101624F4093018F008E001C059
:1011200001E0AB0177FF02C040E050E0FB01E41BAF
:10113000F50BA1E0B0E0AC0FBD1FEA0FFB1F8EE284
:10114000A82E4B01801A91080B2D10E011950195E6
:1011500011094F3FBFEF5B0721F4D601AC92119606
:101160006D01641775072CF08416950614F48181BF
:1011700001C080E3415051093196D60111967D019D
:101180004017510724F0D6018C936701E2CF641712
:10119000750739F4963320F4953319F4311101C0F1
:1011A00081E3F6018083F701822F90E2882319F012
:1011B00091938150FBCFF701E20FF11D108280E087
:1011C00090E02996ECE00C945C0BA0E0B0E0EBEE34
:1011D000F8E00C94400BEC016B016115710519F0FE
:1011E000FB01918380837E01FFEFEF1AFF0A0881E4
:1011F000802F90E00E940B0B892B11F0E701F3CFB9
:101200000D3239F47E0182E0E80EF11C098111E013
:1012100008C00B3229F47E0192E0E90EF11C09812D
:1012200010E0E701219743E050E06CE570E0CE016B
:101230000E94140B892BC1F4239645E050E067E52A
:1012400070E0CE010E94140B892B09F42596C1147D
:10125000D10419F0F601D183C0831111F6C060E00A
:1012600070E080E89FE7FAC043E050E064E570E09A
:10127000CE010E94140B892B59F4C114D10409F436
:10128000E9C0F2E0EF0EF11CF601F182E082E2C06B
:1012900020E030E0A901C0E0D0E0F70180EDA82E09
:1012A000A00E89E08A1530F1912F9260B92E812F1E
:1012B000887012FF04C0811124C0219622C08111C0
:1012C0002197A5E0B0E00E942F0BDC01CB01880F35
:1012D000991FAA1FBB1F9C01AD012A0D311D411D85
:1012E000511D283989E93807480789E1580748F02E
:1012F000166006C09EEFA9120AC013FD40C0186018
:10130000B12E8FEFE81AF80A00811B2DC6CF802F6F
:101310008F7D8534A1F580818D3211F4106106C076
:101320008B3221F0319661E070E004C08181329609
:1013300062E070E080538A3018F0E61BF70B1FC0A4
:1013400060E070E060389CE079075CF4DB01AA0F94
:10135000BB1FAA0FBB1F6A0F7B1F660F771F680F8B
:10136000711D3196DF0111978C9180538A3050F3B3
:1013700014FF03C0719561957109C60FD71F11FF46
:1013800008C0C114D10429F0CF010197F60191835F
:101390008083CA01B9010E944806212F237023309F
:1013A00019F04B015C0106C04B015C01B7FAB09427
:1013B000B7F8B09420E030E0A901C501B4010E9463
:1013C000D105882309F43EC0D7FF06C0D195C19549
:1013D000D10903E710E002C00BE810E06801F8E172
:1013E000CF1AD10890E2E92EF12CCE15DF0574F06A
:1013F000F8012591359145915491C501B4010E94A0
:10140000FA064B015C01CE19DF09EFCF0450110938
:10141000F594E7940C151D0541F78A2D880F8B2D47
:10142000881F8F3F49F020E030E0A901C501B401D9
:101430000E94D105811106C082E290E09093830062
:1014400080938200C501B40109C060E070E080E8CB
:101450009FEF04C060E070E080EC9FE7CDB7DEB79F
:10146000ECE00C945C0B283008F027E03327DA011D
:10147000990F311D87FD916000966105710539F462
:1014800032602E5F3D9330E32A95E1F708959F3F48
:1014900030F080387105610509F03C5F3C5F3D9399
:1014A000913008F08068911DDF93CF931F930F93C5
:1014B000FF92EF92192F987F9695E92F9695969522
:1014C000E90FFF27E751FF4F99273327EE24FF2429
:1014D000A701E70105900894079428F4360FE71E4A
:1014E000F81E491F511D660F771F881F991F06940C
:1014F000A1F70590079428F4E70EF81E491F561F20
:10150000C11D770F881F991F661F0694A1F70590CC
:10151000079428F4F80E491F561FC71FD11D880FC6
:10152000991F661F771F0694A1F70590079420F472
:10153000490F561FC71FD81F990F661F771F881F97
:101540000694A9F784911095177041F0D695C79528
:1015500057954795F794E7941A95C1F7EFE8F0E0AF
:1015600068941590159135916591959105907FE25C
:101570007395E118F10A430B560BC90BD009C0F75C
:10158000E10CF11E431F561FC91FD01D7EF470339E
:1015900011F48A95E6CFE894015030F0080F0AF470
:1015A0000027021708F4202F2395022F7A3328F002
:1015B00079E37D932A95E9F710C07D932A9589F602
:1015C000069497956795379517951794E118F10A42
:1015D000430B560BC90BD00998F023957E91739558
:1015E0007A3308F070E37C932013B8F77E91706132
:1015F0007D9330F0839571E37D9370E32A95E1F755
:101600001124EF90FF900F911F91CF91DF919927B7
:1016100087FD9095089591110C942C0B803219F050
:1016200089508550C8F70895FB01DC0141505040B6
:1016300088F08D9181341CF08B350CF4805E6591BF
:1016400061341CF06B350CF4605E861B611171F324
:10165000990B0895881BFCCF9927882708950E942D
:10166000710BA59F900DB49F900DA49F800D911DAF
:10167000112408952F923F924F925F926F927F9222
:101680008F929F92AF92BF92CF92DF92EF92FF9292
:101690000F931F93CF93DF93CDB7DEB7CA1BDB0B3E
:1016A0000FB6F894DEBF0FBECDBF09942A883988E3
:1016B00048885F846E847D848C849B84AA84B984EA
:1016C000C884DF80EE80FD800C811B81AA81B981F6
:1016D000CE0FD11D0FB6F894DEBF0FBECDBFED010A
:1016E0000895A29FB001B39FC001A39F700D811DFB
:1016F0001124911DB29F700D811D1124911D08951B
:04170000F894FFCF8B
:101704004E2F41004D617468206572726F7200370C
:1017140038392F3435362A3132332D63303D2B009E
:00000001FF
