S01400004D696E692050726F6A6563742E737265638C
S11300000C94C5000C94E2000C94E2000C94E20001
S11300100C94E2000C94E2000C94E2000C94E200D4
S11300200C94E2000C94E2000C94E2000C94E200C4
S11300300C94E2000C94E2000C94E2000C94E200B4
S11300400C94E2000C94E2000C94E2000C94E200A4
S11300500C94E2004E414E494E495459494E46CD06
S1130060CCCC3D0AD7233C17B7D13877CC2B32956B
S113007095E6241FB14F0A000020410000C8420049
S1130080401C4620BCBE4CCA1B0E5AAEC59D740013
S1130090407A10F35A00A0724E18090010A5D4E853
S11300A00000E87648170000E40B54020000CA9AE6
S11300B03B000000E1F50500008096980000004038
S11300C0420F000000A0860100000010270000007D
S11300D000E803000000006400000000000A0000C3
S11300E00000000100000000002C76D888DC674F77
S11300F00823DFC1DFAE59E1B1B796E5E3E453C6A7
S11301003AE651997696E8E6C28426EB898C9B629E
S1130110ED407C6FFCEFBC9C9F40F2BAA56FA5F448
S113012090055A2AF75C936B6CF9676DC11BFCE070
S1130130E40D47FEF520E6B500D0ED902E030094C3
S11301403577050080841E080000204E0A00000058
S1130150C80C333333330F986E12831141EF8D2162
S113016014893BE65516CFFEE6DB18D1844B381BC9
S1130170F77C1D901DA4BBE424203284725E22818E
S113018000C9F124ECA1E53D270011241FBECFE5F1
S1130190D8E0DEBFCDBF10E0A0E6B0E0EEE0F7E1CE
S11301A002C005900D92AA38B107D9F720E0AAE859
S11301B0B0E001C01D92AE38B207E1F70E94A4037B
S11301C00C94850B0C940000CF93DF93CDB7DEB76E
S11301D0A0970FB6F894DEBF0FBECDBF20918A0062
S11301E030918B00FC01E20FF31F40814B3211F080
S11301F04D3251F449832F5F3F4F30938B0020934E
S11302008A0021E030E002C020E030E0E0918A0082
S1130210F0918B00E80FF91F40814F3211F04A3200
S113022001F50E94710362E080E00E94660380E6AB
S113023090E00E94390360E070E0CB0129C02F31C7
S113024031054CF4E1E0F0E0EC0FFD1FE20FF31F89
S113025060832F5F3F4F4F5F5F4F50938B004093FE
S11302608A0040918A0050918B00FC01E40FF51F35
S1130270608170ED760F7A3010F3E1E0F0E0EC0F7E
S1130280FD1FE20FF31F1082CE0101960E948C071E
S1130290A0960FB6F894DEBF0FBECDBFDF91CF910D
S11302A008958F929F92AF92BF92DF92EF92FF9246
S11302B00F931F93CF93DF937C010E94E4008B0183
S11302C0D82FC92F80918A0090918B00F701E80FF5
S11302D0F91FD0802AE2D21619F02FE2D21235C0CB
S11302E0019690938B0080938A00C7010E94E400DA
S11302F04B015C018AE2D81208C0A5019401B8013F
S11303008D2F9C2F0E94FF06DACF20E030E0A90158
S1130310C501B4010E94D60581110FC00E9471036A
S113032064E080E00E9466038FE690E00E94390357
S113033000E010E0D0E0C0E008C0A5019401B801DD
S11303408D2F9C2F0E94DB05BACFB8018D2F9C2FD7
S1130350DF91CF911F910F91FF90EF90DF90BF90AD
S1130360AF909F908F900895CF92DF92EF92FF927B
S11303701F93CF93DF93EC010E9451016B017C0129
S113038080918A0090918B00FE01E80FF91F108183
S11303901B3211F01D32A1F4019690938B008093CF
S11303A08A00CE010E9451019B01AC01C701B60134
S11303B01B3219F40E946A05E1CF0E946905DECF61
S11303C0C701B601DF91CF911F91FF90EF90DF90AD
S11303D0CF90089510928B0010928A000C94B4016F
S11303E0CF93C0E040E06C2F83E00E94E60342E03C
S11303F06C2F82E00E94E603CF5FC43099F7CF915F
S11304000895DF92EF92FF920F931F93CF93DF93A0
S1130410C0E041E06C2F83E00E94A604CF5FC430AB
S1130420C1F78AE7E82E80E0F82E00E010E040E013
S1130430612F83E00E94A604C0E0D0E0DC2E6C2F84
S113044082E00E940B0581110AC0F701EC0FFD1F29
S113045000816D2D82E00E940B058823D1F3219643
S1130460C430D10559F741E0612F83E00E94A6040E
S11304701F5F84E0E80EF11C1430C9F6802FDF9171
S1130480CF911F910F91FF90EF90DF900895CF933C
S1130490C82F40E061E081E00E94A6044C2F441F75
S11304A04427441F67E083E00E94A604C6FB442758
S11304B040F966E083E00E94A604C5FB442740F9A6
S11304C065E083E00E94A604C4FB442740F964E08D
S11304D083E00E94A6048FEC97E00197F1F700C037
S11304E0000041E060E081E00E94A6048FEC97E008
S11304F00197F1F700C0000040E060E081E00E9455
S1130500A6048FEC97E00197F1F700C00000C3FB4D
S1130510442740F967E083E00E94A604C2FB442715
S113052040F966E083E00E94A604C1FB442740F939
S113053065E083E00E94A6044C2F417064E083E0F0
S11305400E94A6048FEC97E00197F1F700C0000029
S113055041E060E081E00E94A6048FEC97E00197FF
S1130560F1F700C0000040E060E081E00E94A604D2
S11305708FEC97E00197F1F700C00000CF91089548
S1130580CF93C82F41E061E081E00E94A6044C2F84
S1130590441F4427441F67E083E00E94A604C6FB6F
S11305A0442740F966E083E00E94A604C5FB442783
S11305B040F965E083E00E94A604C4FB442740F9A7
S11305C064E083E00E94A6048FEC97E00197F1F7C2
S11305D000C0000041E060E081E00E94A6048FECCE
S11305E097E00197F1F700C0000040E060E081E08F
S11305F00E94A6048FEC97E00197F1F700C0000079
S1130600C3FB442740F967E083E00E94A604C2FBD1
S1130610442740F966E083E00E94A604C1FB442716
S113062040F965E083E00E94A6044C2F417064E029
S113063083E00E94A6048FEC97E00197F1F700C0D5
S1130640000041E060E081E00E94A6048FEC97E0A6
S11306500197F1F700C0000040E060E081E00E94F3
S1130660A6048FEC97E00197F1F700C00000CF914A
S11306700895CF93DF93EC018991882319F00E94A8
S1130680C002FACFDF91CF9108950F931F93CF93B8
S1130690DF93CDB7DEB761970FB6F894DEBF0FBE18
S11306A0CDBF8E010F5F1F4F22E046E00E946C0712
S11306B0C8010E94390361960FB6F894DEBF0FBEDD
S11306C0CDBFDF91CF911F910F910895811102C089
S11306D080E803C0813021F480EC860F0C9447023B
S11306E0089581E00E9447028FEC97E00197F1F7AB
S11306F000C00000089560E083E00E94230560E0EC
S113070081E00E9423052FE788E391E02150804097
S11307109040E1F700C0000082E00E94470288E2B6
S11307200E9447028CE00E9447020E94710386E007
S11307300C9447028FE00E9447028FEC97E00197E8
S1130740F1F700C000000895CF93DF93CDB7DEB773
S1130750C054D1090FB6F894DEBF0FBECDBF0E94BE
S11307607B030E94F001CE0101967C0180E4F70135
S113077011928A95E9F70E9401028336E1F70E94FB
S11307809A0310E00E940102833619F40E94710357
S11307900FC08D3379F4F701E10FF11D108260E091
S11307A081E00E946603C7010E94EA010E9445039A
S11307B01982E7CF882331F31F3320F7F701E10FC4
S11307C0F11D80831F5F0E94C002DCCF413009F419
S11307D045C020F0423009F475C008958130A1F07D
S11307E028F08230F9F0833059F108952AB381E07A
S11307F090E001C0880F6A95EAF7922F982B9ABB74
S11308009BB38095892373C027B381E090E001C036
S1130810880F6A95EAF7922F982B97BB98B3809527
S1130820892374C024B381E090E001C0880F6A95E5
S1130830EAF7922F982B94BB95B38095892375C0C2
S113084021B381E090E001C0880F6A95EAF7922F06
S1130850982B91BB92B38095892376C0813089F01F
S113086028F08230C9F0833011F108952AB381E071
S113087090E001C0880F6A95EAF7809582238ABBCD
S1130880089527B381E090E001C0880F6A95EAF7E4
S11308908095822387BB089524B381E090E001C052
S11308A0880F6A95EAF78095822384BB089521B363
S11308B081E090E001C0880F6A95EAF78095822371
S11308C081BB08958130A9F028F0823009F183308A
S11308D071F108952AB381E090E001C0880F6A9510
S11308E0EAF7982F909592239ABB9BB3892B8BBBE5
S11308F0089527B381E090E001C0880F6A95EAF774
S1130900982F9095922397BB98B3892B88BB089511
S113091024B381E090E001C0880F6A95EAF7982F2C
S11309209095922394BB95B3892B85BB089521B3ED
S113093081E090E001C0880F6A95EAF7982F9095BE
S1130940922391BB92B3892B82BB0895442379F1FE
S1130950413009F05FC0813079F028F08230A9F08D
S11309608330E1F008952BB381E090E001C0880F5B
S11309706A95EAF7822B2CC028B381E090E001C08D
S1130980880F6A95EAF7822B2EC025B381E090E0A8
S113099001C0880F6A95EAF7822B30C022B381E048
S11309A090E001C0880F6A95EAF7822B32C081304B
S11309B089F028F08230C9F0833011F108952BB307
S11309C081E090E001C0880F6A95EAF78095822360
S11309D08BBB089528B381E090E001C0880F6A952D
S11309E0EAF78095822388BB089525B381E090E0DF
S11309F001C0880F6A95EAF78095822385BB089524
S1130A0022B381E090E001C0880F6A95EAF78095EF
S1130A10822382BB0895813049F030F0823041F066
S1130A20833079F480B305C089B303C086B301C0B1
S1130A3083B390E002C0959587956A95E2F781703B
S1130A40089580E008956130E1F018F0623049F1D2
S1130A500895813051F028F0823059F0833069F0E4
S1130A6008958FEF8ABB1BBA08958FEF87BB18BA1E
S1130A7008958FEF84BB15BA08958FEF81BB12BA26
S1130A800895813041F028F0823039F0833039F014
S1130A9008951ABA089517BA089514BA089511BAA0
S1130AA00895813051F028F0823059F0833069F094
S1130AB008951ABA8FEF8BBB089517BA8FEF88BBCE
S1130AC0089514BA8FEF85BB089511BA8FEF82BBD6
S1130AD008955058BB27AA270E9481050C94C50687
S1130AE00E94B70638F00E94BE0620F039F49F3FFA
S1130AF019F426F40C94B4060EF4E095E7FB0C9478
S1130B00AE06E92F0E94D60658F3BA176207730798
S1130B108407950720F079F4A6F50C94F8060EF4F2
S1130B20E0950B2EBA2FA02D0B01B90190010C01F9
S1130B30CA01A0011124FF27591B99F0593F50F411
S1130B40503E68F11A16F040A22F232F342F442769
S1130B50585FF3CF469537952795A795F040539561
S1130B60C9F77EF41F16BA0B620B730B840BBAF031
S1130B709150A1F0FF0FBB1F661F771F881FC2F79C
S1130B800EC0BA0F621F731F841F48F487957795B0
S1130B906795B795F7959E3F08F0B0CF9395880F6A
S1130BA008F09927EE0F9795879508950E948A0675
S1130BB008F481E008950E94EF050C94C5060E9494
S1130BC0BE0658F00E94B70640F029F45F3F29F0B2
S1130BD00C94AE0651110C94F9060C94B4060E94C0
S1130BE0D60668F39923B1F3552391F3951B550B5E
S1130BF0BB27AA2762177307840738F09F5F5F4FEC
S1130C00220F331F441FAA1FA9F335D00E2E3AF02A
S1130C10E0E832D091505040E695001CCAF72BD042
S1130C20FE2F29D0660F771F881FBB1F2617370793
S1130C304807AB07B0E809F0BB0B802DBF01FF27C5
S1130C4093585F4F3AF09E3F510578F00C94AE06EE
S1130C500C94F9065F3FE4F3983ED4F386957795B8
S1130C606795B795F7959F5FC9F7880F911D96957E
S1130C70879597F90895E1E0660F771F881FBB1FDA
S1130C80621773078407BA0720F0621B730B840B87
S1130C90BA0BEE1F88F7E0950895E89409C097FB16
S1130CA03EF490958095709561957F4F8F4F9F4F3F
S1130CB09923A9F0F92F96E9BB279395F695879583
S1130CC077956795B795F111F8CFFAF4BB0F11F446
S1130CD060FF1BC06F5F7F4F8F4F9F4F16C08823ED
S1130CE011F096E911C0772321F09EE8872F762F23
S1130CF005C0662371F096E8862F70E060E02AF064
S1130D009A95660F771F881FDAF7880F969587954F
S1130D1097F90895990F0008550FAA0BE0E8FEEF24
S1130D2016161706E807F907C0F012161306E407AB
S1130D30F50798F0621B730B840B950B39F40A26A4
S1130D4061F0232B242B252B21F408950A2609F482
S1130D50A140A6958FEF811D811D089597F99F6786
S1130D6080E870E060E008959FEF80EC089500242F
S1130D700A941616170618060906089500240A94FC
S1130D8012161306140605060895092E0394000C82
S1130D9011F4882352F0BB0F40F4BF2B11F460FF11
S1130DA004C06F5F7F4F8F4F9F4F089557FD90583A
S1130DB0440F551F59F05F3F71F04795880F97FB1B
S1130DC0991F61F09F3F79F08795089512161306D5
S1130DD01406551FF2CF4695F1DF08C01616170604
S1130DE01806991FF1CF8695710561050894089539
S1130DF0E894BB2766277727CB0197F908950E94CB
S1130E0012070C94C5060E94B70638F00E94BE066D
S1130E1020F0952311F00C94AE060C94B406112422
S1130E200C94F9060E94D60670F3959FC1F3950FB2
S1130E3050E0551F629FF001729FBB27F00DB11D5A
S1130E40639FAA27F00DB11DAA1F649F6627B00DEA
S1130E50A11D661F829F2227B00DA11D621F739FD3
S1130E60B00DA11D621F839FA00D611D221F749FE1
S1130E703327A00D611D231F849F600D211D822F28
S1130E80762F6A2F11249F5750409AF0F1F088234F
S1130E904AF0EE0FFF1FBB1F661F771F881F91507C
S1130EA05040A9F79E3F510580F00C94AE060C9477
S1130EB0F9065F3FE4F3983ED4F3869577956795FA
S1130EC0B795F795E7959F5FC1F7FE2B880F911DA6
S1130ED09695879597F90895EF920F931F93CF9363
S1130EE0DF93E80147FD02C034E001C034E1042E81
S1130EF0000C550B57FF03C0519541955109E32E42
S1130F00022F242FAE010E949007CE01DF91CF91D2
S1130F101F910F91EF900895662777270C94EA08A4
S1130F20A9E0B0E0E6E9F7E00C94450B6A01122F62
S1130F30B02E2BE3201720F0FF24F394F00E02C010
S1130F402CE3F22E0F2D27E0AE014F5F5F4F0E947E
S1130F50380ABC014981842F8970813031F0E1FC69
S1130F6006C0E0FE06C090E205C09DE203C09BE21D
S1130F7001C090E05E2D507143FF3CC0911102C04E
S1130F8083E001C084E0811718F4212F281B01C0DD
S1130F9020E051110BC0F601822F30E2882319F0B2
S1130FA031938150FBCFC20ED11C20E0992329F04C
S1130FB0D6019C93F60131966F01C6010396E2FEB9
S1130FC00AC03EE4D6013C9341E411964C93119738
S1130FD012963C9306C03EE6F601308341E6418317
S1130FE03283FC01322F40E2332309F442C041939F
S1130FF03150FACF42FF44C0911102C083E001C0D6
S113100084E0811718F4212F281B01C020E051111E
S11310100BC0F601822F30E2882319F031938150FE
S1131020FBCFC20ED11C20E0992329F0D6019C935A
S1131030F60131966F01C6010396E2FE0BC039E456
S1131040D6013C933EE411963C93119736E41296F4
S11310503C9307C039E6F60130833EE6318336E639
S11310603283FC01322F40E2332319F04193315093
S1131070FBCFFC01E20FF11D10828EEF9FEFA6C0A3
S113108021E030E0911102C020E030E0161617068E
S11310901CF4FB01319602C0E1E0F0E02E0F3F1F8B
S11310A0BB2021F0EB2DF0E0319602C0E0E0F0E04F
S11310B02E0F3F1FE12FF0E02E173F071CF4121BE9
S11310C0212F01C020E08E2D887159F4F601822F62
S11310D030E2882319F031938150FBCFC20ED11C2A
S11310E020E0992329F0D6019C93F60131966F01F3
S11310F051110BC0F601822F90E3882319F09193CC
S11311008150FBCFC20ED11C20E00F2D060F9A8117
S1131110342F307144FF03C0913309F40150101689
S113112024F4093018F008E001C001E0AB0177FFB6
S113113002C040E050E0FB01E41BF50BA1E0B0E08D
S1131140AC0FBD1FEA0FFB1F8EE2A82E4B01801AC5
S113115091080B2D10E01195019511094F3FBFEF38
S11311605B0721F4D601AC9211966D0164177507E3
S11311702CF08416950614F4818101C080E341505B
S113118051093196D60111967D014017510724F07B
S1131190D6018C936701E2CF6417750739F496334F
S11311A020F4953319F4311101C081E3F6018083F1
S11311B0F701822F90E2882319F091938150FBCF9D
S11311C0F701E20FF11D108280E090E02996ECE037
S11311D00C94610BA0E0B0E0E0EFF8E00C94450B58
S11311E0EC016B016115710519F0FB01918380839A
S11311F07E01FFEFEF1AFF0A0881802F90E00E9422
S1131200100B892B11F0E701F3CF0D3239F47E0175
S113121082E0E80EF11C098111E008C00B3229F4C8
S11312207E0192E0E90EF11C098110E0E7012197AB
S113123043E050E06CE570E0CE010E94190B892B6D
S1131240C1F4239645E050E067E570E0CE010E94CA
S1131250190B892B09F42596C114D10419F0F60150
S1131260D183C0831111F6C060E070E080E89FE78D
S1131270FAC043E050E064E570E0CE010E94190B2F
S1131280892B59F4C114D10409F4E9C0F2E0EF0E3A
S1131290F11CF601F182E082E2C020E030E0A90115
S11312A0C0E0D0E0F70180EDA82EA00E89E08A15F9
S11312B030F1912F9260B92E812F887012FF04C0F3
S11312C0811124C0219622C081112197A5E0B0E0AC
S11312D00E94340BDC01CB01880F991FAA1FBB1F8E
S11312E09C01AD012A0D311D411D511D283989E98B
S11312F03807480789E1580748F0166006C09EEF92
S1131300A9120AC013FD40C01860B12E8FEFE81A6D
S1131310F80A00811B2DC6CF802F8F7D8534A1F55F
S113132080818D3211F4106106C08B3221F0319628
S113133061E070E004C08181329662E070E0805325
S11313408A3018F0E61BF70B1FC060E070E06038CD
S11313509CE079075CF4DB01AA0FBB1FAA0FBB1F3B
S11313606A0F7B1F660F771F680F711D3196DF01AF
S113137011978C9180538A3050F314FF03C07195F8
S113138061957109C60FD71F11FF08C0C114D1049C
S113139029F0CF010197F60191838083CA01B90135
S11313A00E944D06212F2370233019F04B015C015C
S11313B006C04B015C01B7FAB094B7F8B09420E0D2
S11313C030E0A901C501B4010E94D605882309F4BF
S11313D03EC0D7FF06C0D195C195D10903E710E0FF
S11313E002C00BE810E06801F8E1CF1AD10890E2DE
S11313F0E92EF12CCE15DF0574F0F8012591359115
S113140045915491C501B4010E94FF064B015C0152
S1131410CE19DF09EFCF04501109F594E7940C15A8
S11314201D0541F78A2D880F8B2D881F8F3F49F0AA
S113143020E030E0A901C501B4010E94D605811164
S113144006C082E290E090938D0080938C00C501E9
S1131450B40109C060E070E080E89FEF04C060E080
S113146070E080EC9FE7CDB7DEB7ECE00C94610B45
S1131470283008F027E03327DA01990F311D87FD62
S1131480916000966105710539F432602E5F3D93D9
S113149030E32A95E1F708959F3F30F080387105D5
S11314A0610509F03C5F3C5F3D93913008F0806832
S11314B0911DDF93CF931F930F93FF92EF92192FF8
S11314C0987F9695E92F96959695E90FFF27E75112
S11314D0FF4F99273327EE24FF24A701E701059046
S11314E00894079428F4360FE71EF81E491F511D6F
S11314F0660F771F881F991F0694A1F7059007941C
S113150028F4E70EF81E491F561FC11D770F881FC8
S1131510991F661F0694A1F70590079428F4F80E06
S1131520491F561FC71FD11D880F991F661F771F9C
S11315300694A1F70590079420F4490F561FC71F7E
S1131540D81F990F661F771F881F0694A9F78491E7
S11315501095177041F0D695C79557954795F79410
S1131560E7941A95C1F7EFE8F0E0689415901591A7
S113157035916591959105907FE27395E118F10A93
S1131580430B560BC90BD009C0F7E10CF11E431FE6
S1131590561FC91FD01D7EF4703311F48A95E6CF0F
S11315A0E894015030F0080F0AF40027021708F4F9
S11315B0202F2395022F7A3328F079E37D932A95FF
S11315C0E9F710C07D932A9589F606949795679557
S11315D0379517951794E118F10A430B560BC90B6D
S11315E0D00998F023957E9173957A3308F070E3CF
S11315F07C932013B8F77E9170617D9330F08395CE
S113160071E37D9370E32A95E1F71124EF90FF9045
S11316100F911F91CF91DF91992787FD90950895A0
S113162091110C94310B803219F089508550C8F710
S11316300895FB01DC014150504088F08D918134C4
S11316401CF08B350CF4805E659161341CF06B35B5
S11316500CF4605E861B611171F3990B0895881B6D
S1131660FCCF9927882708950E94760BA59F900D9B
S1131670B49F900DA49F800D911D112408952F9265
S11316803F924F925F926F927F928F929F92AF920E
S1131690BF92CF92DF92EF92FF920F931F93CF935B
S11316A0DF93CDB7DEB7CA1BDB0B0FB6F894DEBFF2
S11316B00FBECDBF09942A88398848885F846E8418
S11316C07D848C849B84AA84B984C884DF80EE8062
S11316D0FD800C811B81AA81B981CE0FD11D0FB66B
S11316E0F894DEBF0FBECDBFED010895A29FB001F7
S11316F0B39FC001A39F700D811D1124911DB29F42
S1111700700D811D1124911D0895F894FFCFE2
S113170E496E76616C696420496E7075742E004D55
S113171E617468206572726F72003738392F3435F0
S10D172E362A3132332D63303D2B8F
S9030000FC
