S0110000696E73657373696F6E2E7372656338
S11300000C942A000C9434000C9434000C943400A6
S11300100C9434000C9434000C9434000C9434008C
S11300200C9434000C9434000C9434000C9434007C
S11300300C9434000C9434000C9434000C9434006C
S11300400C9434000C9434000C9434000C9434005C
S11300500C94340011241FBECFE5D8E0DEBFCDBF21
S11300600E9436000C9446000C9400008FEF87BB6E
S11300701ABA8BB380688BBBCF9904C088B38160F4
S113008088BBFACF88B38E7F88BBF6CFF894FFCFB6
S9030000FC
